:020000040000FA
:100000000C9462000C948A000C948A000C948A0070
:100010000C948A000C948A000C948A000C948A0038
:100020000C948A000C948A000C948A000C948A0028
:100030000C948A000C948A000C948A000C948A0018
:100040000C9403030C948A000C94D1020C94AB0220
:100050000C948A000C948A000C948A000C948A00F8
:100060000C948A000C948A000000000023002600F3
:10007000290000000000240027002A0000000000E2
:10008000250028002B0004040404040404040202D4
:100090000202020203030303030301020408102007
:1000A0004080010204081020010204081020000012
:1000B0000008000201000003040700000000000027
:1000C00000006B0411241FBECFEFD8E0DEBFCDBF10
:1000D00011E0A0E0B1E0E2ECF9E002C005900D9281
:1000E000A231B107D9F721E0A2E1B1E001C01D9230
:1000F000A83BB207E1F710E0C2E6D0E004C02197C8
:10010000FE010E94D904C136D107C9F70E949203AB
:100110000C94DF040C940000AF92BF92CF92DF9258
:10012000EF92FF920F931F93CF93DF936C017B01AC
:100130008B01040F151FEB015E01AE18BF08C0173D
:10014000D10759F06991D601ED91FC910190F081B0
:10015000E02DC6010995892B79F7C501DF91CF9173
:100160001F910F91FF90EF90DF90CF90BF90AF90D5
:100170000895FC01538D448D252F30E0842F90E0AD
:10018000821B930B541710F0CF9608950197089592
:10019000FC01918D828D981761F0A28DAE0FBF2F5B
:1001A000B11D5D968C91928D9F5F9F73928F90E0B1
:1001B00008958FEF9FEF0895FC01918D828D981720
:1001C00031F0828DE80FF11D858D90E008958FEF5D
:1001D0009FEF0895FC01918D228D892F90E0805C26
:1001E0009F4F821B91098F73992708958BE191E0AE
:1001F0000E94EA0021E0892B09F420E0822F089573
:1002000080E090E0892B29F00E94F60081110C9487
:1002100000000895FC01A48DA80FB92FB11DA35AA9
:10022000BF4F2C91848D90E001968F739927848F16
:10023000A689B7892C93A089B1898C918370806439
:100240008C93938D848D981306C00288F389E02DDA
:1002500080818F7D80830895EF92FF920F931F938B
:10026000CF93DF93EC0181E0888F9B8D8C8D981369
:100270001AC0E889F989808185FF15C09FB7F89475
:10028000EE89FF896083E889F989808183708064C1
:1002900080839FBF81E090E0DF91CF911F910F910C
:1002A000FF90EF900895F62E0B8D10E00F5F1F4F1B
:1002B0000F731127E02E8C8D8E110CC00FB607FC2A
:1002C000FACFE889F989808185FFF5CFCE010E94B8
:1002D0000A01F1CFEB8DEC0FFD2FF11DE35AFF4F1B
:1002E000F0829FB7F8940B8FEA89FB898081806246
:1002F000CFCFCF93DF93EC01888D8823B9F0AA8903
:10030000BB89E889F9898C9185FD03C0808186FDD0
:100310000DC00FB607FCF7CF8C9185FFF2CF80811F
:1003200085FFEDCFCE010E940A01E9CFDF91CF9189
:10033000089590E0FC01E255FF4F2491FC01E65640
:10034000FF4F3491FC01EA57FF4FE491EE23C9F0CF
:10035000222339F0233001F1A8F4213019F12230A1
:1003600029F1F0E0EE0FFF1FE458FF4FA591B49183
:100370008FB7F894EC91611126C030953E233C93E1
:100380008FBF08952730A9F02830C9F0243049F7ED
:10039000809180008F7D03C0809180008F77809353
:1003A0008000DFCF84B58F7784BDDBCF84B58F7DB0
:1003B000FBCF8091B0008F778093B000D2CF809137
:1003C000B0008F7DF9CF3E2BDACFCF93DF9390E053
:1003D000FC01E656FF4F24918A579F4FFC01849100
:1003E0008823D1F090E0880F991FFC01EE58FF4F51
:1003F000A591B491FC01E458FF4FC591D4916111CE
:100400000EC09FB7F8948C91E22FE0958E238C93C9
:100410002881E223E8839FBFDF91CF9108958FB7B2
:10042000F894EC91E22BEC938FBFF6CF3FB7F894A2
:100430008091170190911801A0911901B0911A01B2
:1004400026B5A89B05C02F3F19F00196A11DB11D2F
:100450003FBFBA2FA92F982F8827BC01CD01620F6B
:10046000711D811D911D42E0660F771F881F991F26
:100470004A95D1F708958F929F92AF92BF92CF92F3
:10048000DF92EF92FF924B015C010E9416026B011A
:100490007C010E9416026C197D098E099F09683E35
:1004A000734081059105A8F321E0821A9108A10803
:1004B000B10888EEC80E83E0D81EE11CF11C81143F
:1004C0009104A104B10429F7FF90EF90DF90CF9041
:1004D000BF90AF909F908F9008950F931F9360E00F
:1004E0008CE00E94990183E090E00197F1F761E0D0
:1004F0008CE00E94990183E290E00197F1F760E0BF
:100500008CE00E949901E5EAF0E06491E1E9F0E015
:10051000E491F0E0EE0FFF1FE859FF4F85919491B1
:1005200000E412E42FE030E0462F0E944D036115F5
:1005300071058105910529F06F5F7F4F8F4F9F4FA8
:100540009F702AE330E040E050E00E949804C90127
:100550001F910F9108951F920F920FB60F921124C1
:100560002F933F934F935F936F937F938F939F93BB
:10057000AF93BF93EF93FF938BE191E00E940A0149
:10058000FF91EF91BF91AF919F918F917F916F916B
:100590005F914F913F912F910F900FBE0F901F9041
:1005A00018951F920F920FB60F9211242F938F93CD
:1005B0009F93EF93FF93E0912B01F0912C018081A9
:1005C000E0913101F091320182FD1BC09081809158
:1005D00034018F5F8F7320913501821741F0E091D4
:1005E0003401F0E0E55EFE4F958F80933401FF917A
:1005F000EF919F918F912F910F900FBE0F901F90B1
:1006000018958081F4CF1F920F920FB60F9211248C
:100610002F933F938F939F93AF93BF938091130139
:1006200090911401A0911501B09116013091120121
:1006300023E0230F2D3758F50196A11DB11D2093FE
:1006400012018093130190931401A0931501B093AC
:1006500016018091170190911801A0911901B09194
:100660001A010196A11DB11D8093170190931801E5
:10067000A0931901B0931A01BF91AF919F918F91EF
:100680003F912F910F900FBE0F901F90189526E865
:10069000230F0296A11DB11DD2CFCF92DF92EF9210
:1006A000FF920F931F93E82FF92F05C001501109F6
:1006B0002109310961F1908196239417B9F305C09E
:1006C000015011092109310911F1908196239413E8
:1006D000F7CFC12CD12CE12CF12C0AC08FEFC81A16
:1006E000D80AE80AF80A0C151D052E053F0579F011
:1006F00080818623841791F36C2D7D2D8E2D9F2D67
:100700001F910F91FF90EF90DF90CF90089560E0E0
:1007100070E080E090E01F910F91FF90EF90DF90EC
:10072000CF900895789484B5826084BD84B581604B
:1007300084BD85B5826085BD85B5816085BD8091AC
:100740006E00816080936E00109281008091810024
:10075000826080938100809181008160809381001C
:10076000809180008160809380008091B1008460DE
:100770008093B1008091B00081608093B00080913F
:100780007A00846080937A0080917A0082608093FE
:100790007A0080917A00816080937A0080917A005B
:1007A000806880937A001092C100E0912B01F09153
:1007B0002C0182E08083E0912701F09128011082D2
:1007C000E0912901F0912A018FEC8083109233018E
:1007D000E0912F01F091300186E08083E0912D01BE
:1007E000F0912E01808180618083E0912D01F09154
:1007F0002E01808188608083E0912D01F0912E018F
:10080000808180688083E0912D01F0912E018081AC
:100810008F7D808361E08CE00E94E50160E08BE0E9
:100820000E94E50161E082E00E94E501C0E0D0E0C5
:100830000E946D0206974397E0F568EC70E080E057
:1008400090E00E943B0261E082E00E94990161E039
:1008500083E00E94990168EC70E080E090E00E94E3
:100860003B020E946D024A97489760F564EF71E081
:1008700080E090E00E943B0261E082E00E949901EA
:1008800061E083E00E94990164EF71E080E090E014
:100890000E943B0264E670E080E090E00E943B0230
:1008A000209731F20E94F600882311F20E94000086
:1008B000BFCF60E082E00E94990160E083E00E9487
:1008C0009901CFCF60E082E00E94990160E083E06F
:1008D0000E949901DFCFEBE1F1E01382128288EEF2
:1008E00093E0A0E0B0E084839583A683B78384E09F
:1008F00091E09183808385EC90E09587848784ECF8
:1009000090E09787868780EC90E0918B808B81ECDC
:1009100090E0938B828B82EC90E0958B848B86ECBD
:1009200090E0978B868B118E128E138E148E089505
:10093000052E97FB1EF400940E94AF0457FD07D0CC
:100940000E94B70407FC03D04EF40C94AF045095FA
:100950004095309521953F4F4F4F5F4F08959095AB
:100960008095709561957F4F8F4F9F4F0895A1E2BD
:100970001A2EAA1BBB1BFD010DC0AA1FBB1FEE1F19
:10098000FF1FA217B307E407F50720F0A21BB30B64
:10099000E40BF50B661F771F881F991F1A9469F7E0
:1009A00060957095809590959B01AC01BD01CF013C
:1009B0000895EE0FFF1F0590F491E02D0994F8942F
:1009C000FFCF000000002C018C00B9007901EA0083
:0409D000C800DC007F
:107E0000112484B714BE81FFF0D085E080938100F7
:107E100082E08093C00088E18093C10086E0809377
:107E2000C20080E18093C4008EE0C9D0259A86E02C
:107E300020E33CEF91E0309385002093840096BBD3
:107E4000B09BFECF1D9AA8958150A9F7CC24DD24C4
:107E500088248394B5E0AB2EA1E19A2EF3E0BF2EE7
:107E6000A2D0813461F49FD0082FAFD0023811F036
:107E7000013811F484E001C083E08DD089C08234E0
:107E800011F484E103C0853419F485E0A6D080C0E4
:107E9000853579F488D0E82EFF2485D0082F10E0AE
:107EA000102F00270E291F29000F111F8ED06801E7
:107EB0006FC0863521F484E090D080E0DECF843638
:107EC00009F040C070D06FD0082F6DD080E0C81688
:107ED00080E7D80618F4F601B7BEE895C0E0D1E017
:107EE00062D089930C17E1F7F0E0CF16F0E7DF06D8
:107EF00018F0F601B7BEE89568D007B600FCFDCFD4
:107F0000A601A0E0B1E02C9130E011968C91119780
:107F100090E0982F8827822B932B1296FA010C0160
:107F200087BEE89511244E5F5F4FF1E0A038BF0790
:107F300051F7F601A7BEE89507B600FCFDCF97BE46
:107F4000E89526C08437B1F42ED02DD0F82E2BD052
:107F50003CD0F601EF2C8F010F5F1F4F84911BD097
:107F6000EA94F801C1F70894C11CD11CFA94CF0C13
:107F7000D11C0EC0853739F428D08EE10CD085E9AC
:107F80000AD08FE07ACF813511F488E018D01DD067
:107F900080E101D065CF982F8091C00085FFFCCF94
:107FA0009093C60008958091C00087FFFCCF809118
:107FB000C00084FD01C0A8958091C6000895E0E648
:107FC000F0E098E1908380830895EDDF803219F02E
:107FD00088E0F5DFFFCF84E1DECF1F93182FE3DFCA
:107FE0001150E9F7F2DF1F91089580E0E8DFEE27F6
:047FF000FF270994CA
:027FFE00040479
:00000001FF
